:100000000C942A000C943F000C943F000C943F0089
:100010000C943F000C943F000C943F000C943F0064
:100020000C943F000C943F000C943F000C943F0054
:100030000C943F000C943F000C943F000C943F0044
:100040000C943F000C943F000C943F000C943F0034
:100050000C943F0011241FBECFE5D8E0DEBFCDBF1A
:1000600010E0A0E6B0E0E8E0F2E002C005900D92FA
:10007000A036B107D9F70E94F9000C9402010C9444
:1000800000008FEE82BB809909C085B3826085BB7A
:10009000809BFECF85B38D7F85BB0895819909C074
:1000A00085B3826085BB819BFECF85B38D7F85BB89
:1000B0000895829909C085B3826085BB829BFECF7B
:1000C00085B38D7F85BB0895839908C085B3826011
:1000D00085BB839BFECF85B38D7F85BB08958FED58
:1000E00082BB809909C085B3826085BB809BFECFAF
:1000F00085B38D7F85BB0895819909C085B38260E2
:1001000085BB819BFECF85B38D7F85BB089582998A
:1001100009C085B3826085BB829BFECF85B38D7F8E
:1001200085BB0895839908C085B3826085BB839B96
:10013000FECF85B38D7F85BB08958FEB82BB809901
:1001400009C085B3826085BB809BFECF85B38D7F60
:1001500085BB0895819909C085B3826085BB819B69
:10016000FECF85B38D7F85BB0895829909C085B385
:10017000826085BB829BFECF85B38D7F85BB089552
:10018000839908C085B3826085BB839BFECF85B30E
:100190008D7F85BB08958FE782BB809909C085B3A9
:1001A000826085BB809BFECF85B38D7F85BB089524
:1001B000819909C085B3826085BB819BFECF85B3E1
:1001C0008D7F85BB0895829909C085B3826085BB08
:1001D000829BFECF85B38D7F85BB0895839908C030
:1001E00085B3826085BB839BFECF85B38D7F85BB46
:1001F00008950E9441000E946F000E949D000E948D
:08020000CB00F7CFF894FFCF0B
:00000001FF
