:100000000C942A000C9434000C9434000C943400AA
:100010000C9434000C9434000C9434000C94340090
:100020000C9434000C9434000C9434000C94340080
:100030000C9434000C9434000C9434000C94340070
:100040000C9434000C9434000C9434000C94340060
:100050000C94340011241FBECFE5D8E0DEBFCDBF25
:100060000E9436000C945B000C94000084B38B61FA
:1000700084BB81B3806381BB8FB5806A8FBD8FB530
:1000800081608FBD8EB588608EBD8EB583608EBD5C
:1000900085B3886085BB86E98ABD88BD85B38061EC
:1000A00085BB85B3877F85BB85B3816085BB85B301
:0A00B0008D7F85BBFFCFF894FFCFD2
:00000001FF
