:100000000C942A000C9447000C9447000C94470071
:100010000C9447000C9447000C9447000C94A602E3
:100020000C9447000C9447000C9447000C94470034
:100030000C9447000C9447000C9447000C94470024
:100040000C9447000C9447000C9447000C94470014
:100050000C94470011241FBECFE5D8E0DEBFCDBF12
:1000600010E0A0E6B0E0ECEDF5E102C005900D92E5
:10007000A038B107D9F726E0A0E8B0E001C01D9292
:10008000A03CB207E1F70E9410010C94EC0A0C941A
:100090000000CF93DF93EC010E946A0780918000FB
:1000A00090918100892B31F484E890E09093810055
:1000B000809380002097C9F0809182009091830006
:1000C0009E01280F391F2B3D45E0340788F4821725
:1000D000930788F4C0918000D0918100C80FD91F88
:1000E000309383002093820008C0C0E0D0E005C0B8
:1000F000C0E0D0E002C0C0E0D0E00E948A08CE019B
:10010000DF91CF9108950895FC0103969283818336
:100110002FEF3FEF348323839683858390878783F4
:1001200010820895FC01118610860895CF93DF9305
:10013000EB01488159814F3F2FEF520721F4FC0119
:10014000A781B0850DC0DC01139601C0DF011296B6
:10015000ED91FC9113972081318142175307B0F73D
:100160001296ED91FC911397FB83EA83D583C483A8
:10017000BD83AC831396DC93CE93129799878887BF
:10018000FC0120812F5F2083DF91CF910895CF93D1
:10019000DF93FC01A085B185C281D38184819581E3
:1001A0009D838C83C481D581828193819B838A8343
:1001B00011968D919C911297E817F90731F484817B
:1001C000958112969C938E931197118610868C912F
:1001D00081508C938C91DF91CF910895EC0120E0B8
:1001E00045E050E0BE018091BE069091BF060E949E
:1001F0000F040E94F101F3CFCF93DF931F92CDB78D
:10020000DEB745E050E0BE016F5F7F4F8091BE06D4
:100210009091BF060E94A10489810E94CB0AF1CF70
:10022000CF93DF9300D0CDB7DEB70E94C30A40E082
:1002300061E085E00E94CE039093BF068093BE06E6
:10024000892B51F181E0898382E08A83E12CF12CB2
:1002500001E09E012F5F3F4F44E650E061E670E011
:100260008EEE90E00E94E5069E012E5F3F4F44E631
:1002700050E069E670E08EEE90E00E94E50602E054
:1002800020E030E044E650E061E770E08CEF90E081
:100290000E94E5060E943E07FFCF1BBC89EF8ABD86
:1002A0008BE08EBD89B7806189BF089531E1FC0183
:1002B0003083319722E220833197A3E3A0833197E3
:1002C00060833197708331971082319760E8608343
:1002D00031971082319762E06083319763E06083E9
:1002E000319764E06083319765E06083319766E021
:1002F0006083319767E06083319768E0608331976E
:1003000069E06083319760E1608331973083319792
:1003100032E13083319733E13083319734E13083F8
:10032000319735E13083319736E13083319737E1CA
:100330003083319738E13083319739E13083319719
:1003400030E23083319731E2308331972083319727
:1003500023E220833197408331975083319726E2FF
:100360002083319727E22083319728E22083319739
:1003700029E22083319720E32083319721E32083F2
:10038000869708950E944D01A091BC06B091BD06CC
:10039000CD91CDBFDD91DEBFFF91EF91DF91CF9188
:1003A000BF91AF919F918F917F916F915F914F918D
:1003B0003F912F911F910F91FF90EF90DF90CF9081
:1003C000BF90AF909F908F907F906F905F904F9075
:1003D0003F902F901F900F900FBE0F90089581E0D7
:1003E00008950F920FB6F8940F921F9211242F9236
:1003F0003F924F925F926F927F928F929F92AF92B5
:10040000BF92CF92DF92EF92FF920F931F932F93A1
:100410003F934F935F936F937F938F939F93AF938C
:10042000BF93CF93DF93EF93FF93A091BC06B0915E
:10043000BD060DB60D920EB60D920E945F09A091F9
:10044000BC06B091BD06CD91CDBFDD91DEBFFF9161
:10045000EF91DF91CF91BF91AF919F918F917F915C
:100460006F915F914F913F912F911F910F91FF904D
:10047000EF90DF90CF90BF90AF909F908F907F9044
:100480006F905F904F903F902F901F900F900FBEF6
:100490000F9008950F920FB6F8940F921F921124A7
:1004A0002F923F924F925F926F927F928F929F9284
:1004B000AF92BF92CF92DF92EF92FF920F931F9372
:1004C0002F933F934F935F936F937F938F939F935C
:1004D000AF93BF93CF93DF93EF93FF93A091BC06AD
:1004E000B091BD060DB60D920EB60D920E9470072A
:1004F00081110E945F09A091BC06B091BD06CD910B
:10050000CDBFDD91DEBFFF91EF91DF91CF91BF9124
:10051000AF919F918F917F916F915F914F913F919B
:100520002F911F910F91FF90EF90DF90CF90BF9090
:10053000AF909F908F907F906F905F904F903F9083
:100540002F901F900F900FBE0F9008950E944A02A7
:1005500018950FB6F8940F92FC01828D811102C09C
:1005600081E001C080E00F900FBE08950FB6F894AF
:100570000F92FC01228D838D281302C081E001C0FF
:1005800080E00F900FBE08950F931F93CF93DF93DA
:10059000EC01042F1A8D4C8D4423B9F1011116C0C2
:1005A00050E08A819B810E94E30A2C8D8A819B8185
:1005B000820F911D9B838A832C813D818217930733
:1005C00020F1888199819B838A831FC050E08E81AE
:1005D0009F810E94E30A8C8D90E09195819591090D
:1005E0002E813F81280F391F3F832E8348815981F7
:1005F0002417350730F42C813D81820F931F9F8390
:100600008E83023011F4111111501F5F1A8F80E098
:10061000DF91CF911F910F910895FC01448D4423E8
:10062000A9F050E026813781240F351F37832683B8
:10063000848195812817390720F0808191819783E3
:100640008683CB01668177810E94E30A08951F9318
:10065000CF93DF93EC010FB6F8940F921E8D0BC071
:100660008989882351F0CE0141960E94C5098111E4
:100670000E94BF0A115011169CF38FEF8E8F0F90BE
:100680000FBE0FB6F8940F921D8D0BC0888588237E
:1006900051F0CE0108960E94C50981110E94BF0A3F
:1006A000115011169CF38FEF8D8F0F900FBEDF91BD
:1006B000CF911F9108950F931F93CF93DF93FC0168
:1006C000362F892B09F44DC0238D222309F44BC00A
:1006D000022F10E08FEF9FEFB8010E94CF0A448DE8
:1006E000842F90E06817790708F43FC0EF010FB638
:1006F000F8940F9260817181FB01249FE00DF11D40
:100700001124FD83EC831A8E7B836A8301501109C7
:10071000809FA001819F500D909F500D1124CB010F
:10072000840F951F9F838E838FEF8D8F8E8F311156
:100730000CC08885882389F0CE0108960E94C509DF
:10074000882359F00E94F10108C0CE0108960E944A
:100750008400CE0141960E9484000F900FBE81E07C
:1007600005C080E003C080E001C080E0DF91CF9150
:100770001F910F9108950F931F93F801611103C00A
:100780001183008302C051834083838F648F61E0B3
:10079000CF010E945B031F910F910895DF92EF92AA
:1007A000FF920F931F93CF93DF93382FE62F882369
:1007B00029F1682F70E08FEF9FEF0E94CF0A8E2FF4
:1007C00090E068177907E8F03E9FC0011124813E50
:1007D0002FEF9207C8F4D42EDE2FC32F4F960E941E
:1007E00049007C01009791F08C012D2DAC01415EF8
:1007F0005F4F6D2F8C2F0E94BB0308C0E12CF12CA2
:1008000005C0E12CF12C02C0E12CF12CC701DF91D5
:10081000CF911F910F91FF90EF90DF900895CF92AD
:10082000DF92EF92FF920F931F93CF93DF9300D04D
:1008300000D01F92CDB7DEB78C017B015D834C8366
:10084000C22ED12C0FB6F8940F92F801928D838DA1
:10085000981718F0F2E0CF1219C04C2DB701C8015B
:100860000E94C402F8019189992349F0C801419678
:100870000E94C509882331F00E94F10103C0811153
:100880000E94F1010F900FBE81E04DC08C819D81CF
:10089000892B21F40F900FBE80E045C0D11006C017
:1008A000CE0101960E94820ADD24D3940F900FBEE0
:1008B0000E946A070FB6F8940F92F801858D8F3F5A
:1008C00009F4158EF801868D8F3F09F4168E0F906E
:1008D0000FBEBE016C5F7F4FCE0101960E948D0A54
:1008E00081111BC0C8010E94B602882381F06C816F
:1008F0007D81C80108960E94B309C8010E942703A0
:100900000E948A0881119ECF0E94F1019BCFC801ED
:100910000E9427030E948A0895CFC8010E942703DE
:100920000E948A0880E00F900F900F900F900F9018
:10093000DF91CF911F910F91FF90EF90DF90CF90BB
:100940000895CF92DF92EF92FF920F931F93CF9370
:10095000DF9300D000D01F92CDB7DEB78C016B01C2
:100960005D834C83E12C0FB6F8940F92F801F28C62
:10097000FF20A9F0B601C8010E940D03FA94F80106
:10098000F28E8085882339F0C80108960E94C50937
:1009900081110E94F1010F900FBE81E053C08C8144
:1009A0009D81892B21F40F900FBE80E04BC0E11098
:1009B00006C0CE0101960E94820AEE24E3940F90B5
:1009C0000FBE0E946A070FB6F8940F92F801858D4A
:1009D0008F3F09F4158EF801868D8F3F09F4168E2E
:1009E0000F900FBEBE016C5F7F4FCE0101960E943B
:1009F0008D0A81111BC0C8010E94A902882381F0C1
:100A00006C817D81C80141960E94B309C8010E9492
:100A100027030E948A088111A6CF0E94F101A3CF6B
:100A2000C8010E9427030E948A089DCFC8010E9426
:100A300027030E948A08C8010E94A902882309F49A
:100A400092CF80E00F900F900F900F900F90DF915A
:100A5000CF911F910F91FF90EF90DF90CF9008956D
:100A6000E0918406F09185068081811107C08FEFA7
:100A70009FEF90936406809363060895E091840647
:100A8000F09185060580F681E02D8081918190931B
:100A90006406809363060895CF93DF93EC018F89FA
:100AA000988D0E948300CE010E948300DF91CF9138
:100AB00008956F927F928F929F92AF92BF92CF9242
:100AC000DF92EF920F931F93CF93DF93CDB7DEB7F3
:100AD0004C01F5018789908D215031093C01620E4E
:100AE000731E6115710589F415C0822F90E0FB011A
:100AF000E80FF91F3081D501A80FB91F59963C9313
:100B00008081882329F02F5F01C020E0283068F31E
:100B1000F50110A2F3E0FE1520F40F2EF3E0EF2E06
:100B2000F02DF501E68AC50102960E949200C501EA
:100B30000C960E949200F501B186A08684E090E0B8
:100B40008E19910995878487B38AA28AA801B40176
:100B5000C3010E945601F50191838083C114D10421
:100B600019F0F601B182A082DF91CF911F910F9110
:100B7000EF90DF90CF90BF90AF909F908F907F903D
:100B80006F900895CF93C0E010C08C2F90E09C012F
:100B9000220F331F220F331F220F331F820F931F89
:100BA0008856994F0E948400CF5FC43070F38FE85D
:100BB00096E00E94840086E896E00E94840089E71F
:100BC00096E00E94840080E796E00E9484008FE80F
:100BD00096E0909385068093840686E896E090934D
:100BE000830680938206CF910895CF93DF93EC0123
:100BF0000FB6F8940F9280916E068F5F80936E0609
:100C00008091BC069091BD06892B59F4D093BD0606
:100C1000C093BC0680916E06813099F40E94C20593
:100C200010C080916A0681110CC0E091BC06F09161
:100C3000BD0696898E89891720F0D093BD06C09392
:100C4000BC06809165068F5F809365068E899091C2
:100C50006B06981710F480936B0690E0FC01EE0F82
:100C6000FF1FEE0FFF1FEE0FFF1F8E0F9F1FFC01D8
:100C7000E856F94F0180F281E02DFD83EC838481F9
:100C800095819F838E83A481B581CE0102961396B0
:100C90009C938E93129795838483EE89F0E0CF0125
:100CA000880F991F880F991F880F991FE80FF91F48
:100CB000E856F94FFB87EA8780818F5F80830F902A
:100CC0000FBE80916A06882351F0E091BC06F09136
:100CD000BD0696898E89981710F40E94F101DF9164
:100CE000CF910895CF93DF931CC00FB6F8940F9265
:100CF000E0917506F0917606C681D781CE01029605
:100D00000E94C70080916E06815080936E0680918C
:100D10006F06815080936F060F900FBECE010E9428
:100D20004C0580916F068111E0CFDF91CF9108953E
:100D30000E947206809198068230D0F30E94F101E1
:100D4000F7CF0F931F93CF93DF93EC0100916C06C5
:100D500010916D068091BC069091BD0602960E948E
:100D6000C700C00FD11FE091BC06F091BD06D38330
:100D7000C283C017D10768F46091BC067091BD06AC
:100D800080918206909183066E5F7F4F0E9496004D
:100D900017C06091BC067091BD0680918406909149
:100DA00085066E5F7F4F0E9496008091630690914A
:100DB0006406C817D90720F4D0936406C09363066D
:100DC000DF91CF911F910F9108952F923F924F92F3
:100DD0005F926F927F928F929F92AF92BF92CF92CB
:100DE000DF92EF92FF920F931F93CF93DF933C011B
:100DF0001B015A012901CA010E9449006C01892B7B
:100E000099F086E290E00E944900EC01892B41F0C4
:100E100086E2FE0111928A95E9F7D88ECF8A06C044
:100E2000C6010E94830002C0C0E0D0E0209791F08C
:100E3000950140E050E0812C912C5E016701E02E8D
:100E40008201B101C3010E945905CE010E94F5053E
:100E500081E001C08FEFDF91CF911F910F91FF9043
:100E6000EF90DF90CF90BF90AF909F908F907F904A
:100E70006F905F904F903F902F900895EF92FF9268
:100E80000F930F2EF1E6EF2EF6E0FF2EF02D00E08F
:100E900020E030E045E550E06AE770E088E996E060
:100EA0000E94E506813081F4F8948FEF9FEF9093D4
:100EB00064068093630681E080936A0610926D0653
:100EC00010926C060E94C201809160000F91FF9009
:100ED000EF900895809160068F5F8093600608957B
:100EE0000F931F93CF93DF9380916006811101C10F
:100EF000C0916C06D0916D068E010F5F1F4F10934D
:100F00006D0600936C0601151105B9F480918406F5
:100F10009091850620918206309183063093850654
:100F200020938406909383068093820680916606C0
:100F30008F5F809366060E943005809163069091D2
:100F400064060817190720F480E0B8C081E001C0EA
:100F500080E0E0918406F09185069081911107C0B0
:100F60002FEF3FEF3093640620936306A7C0E09114
:100F70008406F09185060580F681E02D0680F781D4
:100F8000E02D228133810217130728F43093640681
:100F90002093630693C0A285B38524813581468161
:100FA0005781E9015D834C832681378144815581D6
:100FB000E9015B834A8311962D913C911297AF0111
:100FC0004E5F5F4F2417350731F426813781129623
:100FD0003C932E931197138612869C9191509C936B
:100FE000A489B589109719F126853785608971899B
:100FF000E9017D836C832089318966857785E901E4
:101000007B836A8311966D917C9112979F01245F77
:101010003F4F6217730731F42089318912963C9350
:101020002E931197158A148A9C9191509C9326892E
:1010300090916B06921710F420936B0630E0D90163
:10104000AA0FBB1FAA0FBB1FAA0FBB1F2A0F3B1F54
:10105000D901A856B94F11960D90BC91A02DB5831A
:10106000A48314962D913C9115973783268314966B
:101070002D913C911597E9015B834A8315965C930A
:101080004E931497A689B0E09D01220F331F220FC3
:10109000331F220F331FA20FB31FA856B94FB387B8
:1010A000A2879C919F5F9C932689E091BC06F0915A
:1010B000BD069689921708F449CF4BCFE091BC0644
:1010C000F091BD06268930E0F901EE0FFF1FEE0F0B
:1010D000FF1FEE0FFF1F2E0F3F1FF901E856F94FBC
:1010E0009081923008F081E09091670691110CC0D8
:1010F0000CC08091680690916906019690936906EC
:101100008093680680E001C081E0DF91CF911F915C
:101110000F910895CF93DF930FB6F8940F928091BB
:101120006006815080936006809160068111BFC087
:1011300080916E06811196C0BDC0E0917E06F0914F
:101140007F060680F781E02DA489B589C685D785FD
:10115000808991899D838C83C089D1898685978573
:101160009B838A8311962D913C911297CF010C9607
:101170002817390731F48089918912969C938E93B0
:101180001197158A148A8C9181508C93A285B3850E
:10119000C481D581868197819D838C83C681D781C7
:1011A000848195819B838A8311968D919C9112975E
:1011B0009F012E5F3F4F8217930731F486819781FD
:1011C00012969C938E931197138612868C91815060
:1011D0008C93868990916B06981710F480936B0618
:1011E00090E0DC01AA0FBB1FAA0FBB1FAA0FBB1FF9
:1011F0008A0F9B1FDC01A856B94F11960D90BC9128
:10120000A02DB583A48314968D919C9115979783F7
:1012100086831496CD91DC9115973B832A8315968E
:101220003C932E931497A689B0E0CD01880F991FA7
:10123000880F991F880F991FA80FB91FA856B94F7B
:10124000B387A2878C918F5F8C939689A091BC06FF
:10125000B091BD0656968C91981730F081E080933E
:10126000670602C0E0E0F0E080917906811165CF69
:10127000EF2B11F00E943005C0916806D0916906ED
:10128000209769F00E947007882319F081E080930D
:1012900067062197B9F71092690610926806809147
:1012A0006706882331F00E94F10181E003C080E0ED
:1012B00001C080E00F900FBEDF91CF910895809123
:1012C0006006882321F081E08093670608951092DC
:1012D000670620916B0601C02150822F90E0FC012F
:1012E000EE0FFF1FEE0FFF1FEE0FFF1FE80FF91F9E
:1012F000E856F94F3081332379F3AC01440F551F81
:10130000440F551F440F551F480F591FDF0101801F
:10131000F281E02D0280F381E02D1296FC93EE9392
:1013200011974556594FE417F50729F44281538127
:10133000FD0152834183FC01EE0FFF1FEE0FFF1FE3
:10134000EE0FFF1F8E0F9F1FFC01E856F94F018023
:10135000F281E02D868197819093BD068093BC0633
:1013600020936B060895CF93DF93EB016091BC0649
:101370007091BD06645F7F4F0E94960061E0CE01D0
:101380000E94A106DF91CF910895CF93DF93DC01F6
:101390001596ED91FC9116970680F781E02DA489B2
:1013A000B589C685D785808991899D838C83C089BD
:1013B000D189868597859B838A8311968D919C918F
:1013C00012979F01245F3F4F8217930731F4808962
:1013D000918912969C938E931197158A148A8C91F9
:1013E00081508C9380916006811160C0A285B38585
:1013F000C481D581868197819D838C83C681D78165
:10140000848195819B838A8311968D919C911297FB
:101410009F012E5F3F4F8217930731F4868197819A
:1014200012969C938E931197138612868C918150FD
:101430008C93868990916B06981710F480936B06B5
:1014400090E0DC01AA0FBB1FAA0FBB1FAA0FBB1F96
:101450008A0F9B1FDC01A856B94F11960D90BC91C5
:10146000A02DB583A48314968D919C911597978395
:1014700086831496CD91DC9115973B832A8315962C
:101480003C932E931497A689B0E0CD01880F991F45
:10149000880F991F880F991FA80FB91FA856B94F19
:1014A000B387A2878C918F5F8C931CC049E756E06D
:1014B000DA011196CD91DC911297D787C6878C817E
:1014C0009D81918B808B8C819D81DC0113963C9357
:1014D0002E9312973D832C83558B448BDA018C918C
:1014E0008F5F8C939689E091BC06F091BD0686894A
:1014F000891720F481E08093670601C080E0DF91C6
:10150000CF91089520916606FC01208320916C06FE
:1015100030916D06328321830895CF93DF930FB608
:10152000F8940F9240916C0650916D06EC01298160
:101530003A81DA01A21BB30BF881E0916606FE172F
:1015400041F04217530728F0FB011182108281E01D
:1015500011C0EB0128813981A217B30740F42A1B7F
:101560003B0B398328830E94820A80E003C01982E2
:10157000188281E00F900FBEDF91CF91089581E036
:1015800080936706089588E18AB986E880BD87E67A
:1015900089B910BC08955D9BFECF8CB90895AA1B34
:1015A000BB1B51E107C0AA1FBB1FA617B70710F04E
:1015B000A61BB70B881F991F5A95A9F78095909580
:1015C000BC01CD010895FB01DC0102C001900D9228
:0C15D00041505040D8F70895F894FFCF28
:1015DC000373656E646572310073656E6465723297
:1015EC000072656365697665720049444C4500007C
:00000001FF
