S011000054696D65725F6374632E7372656379
S11300000C942A000C943C000C943C000C943C008E
S11300100C943C000C943C000C943C000C943C006C
S11300200C943C000C943C000C944E000C946C001A
S11300300C943C000C943C000C943C000C943C004C
S11300400C943C000C943C000C943C000C943C003C
S11300500C943C0011241FBECFE5D8E0DEBFCDBF19
S113006020E0A0E6B0E001C01D92A236B207E1F79D
S11300700E943E000C9483000C94000084B38468B6
S113008084BB85B38F7785BB83B78B6083BF89B708
S1130090836089BF78948FE88CBFFFCF1F920F9243
S11300A00FB60F9211242F938F939F93809160002A
S11300B090916100803D934039F485B3805885BBAD
S11300C010926100109260009F918F912F910F9078
S11300D00FBE0F901F9018951F920F920FB60F929C
S11300E011248F939F9380916000909161000196F9
S11300F090936100809360009F918F910F900FBE49
S10D01000F901F901895F894FFCF9C
S9030000FC
