:100000000C942A000C9434000C9434000C943400AA
:100010000C9434000C9434000C9434000C94340090
:100020000C9434000C9434000C9434000C94340080
:100030000C9434000C9434000C9434000C94340070
:100040000C9434000C9434000C9434000C94340060
:100050000C94340011241FBECFE5D8E0DEBFCDBF25
:100060000E945D000C9491000C940000823081F09D
:1000700018F4813031F00895833089F08430B1F084
:10008000089582B3836082BB82B38B7F82BB089565
:1000900082B3866082BB82B38E7F82BB089582B3B7
:1000A0008C6082BB82B38D7F82BB089582B38960EE
:1000B00082BB82B38B7F82BB089581B38F6081BB8B
:1000C00081E00E9436002FEF87EA91E621508040C0
:1000D0009040E1F700C0000082E00E9436002FEF60
:1000E00087EA91E6215080409040E1F700C000008F
:1000F00083E00E9436002FEF87EA91E6215080408E
:100100009040E1F700C0000084E00E9436002FEF2D
:1001100087EA91E6215080409040E1F700C000005E
:06012000CFCFF894FFCFE1
:00000001FF
