S0130000736572766F5F6D6F746F722E7372656352
S11300000C942A000C9434000C9434000C943400A6
S11300100C9434000C9434000C9434000C9434008C
S11300200C9434000C9434000C9434000C9434007C
S11300300C9434000C9434000C9434000C9434006C
S11300400C9434000C9434000C9434000C9434005C
S11300500C94340011241FBECFE5D8E0DEBFCDBF21
S11300600E944D000C9495000C94000049EF489FA9
S11300709001499F300D1124A3E8BDE20E9486003F
S113008096958795929582958F7089279F70892779
S113009087509F4F9BBD8ABD089581B3806281BB09
S11300A08FB582688FBD87E893E197BD86BD8EB515
S11300B08B618EBD8EE190E00E9436002FEF87EABF
S11300C091E6215080409040E1F700C000008AE5AD
S11300D090E00E9436002FEF87EA91E6215080409D
S11300E09040E1F700C0000084EB90E00E943600ED
S11300F02FEF87EA91E6215080409040E1F700C05D
S1130100000080E090E00E943600D4CFA29FB001AE
S1130110B39FC001A39F700D811D1124911DB29F37
S1110120700D811D1124911D0895F894FFCFD8
S9030000FC
