S011000052544F535F746573742E73726563AC
S11300000C942A000C9447000C9447000C9447006D
S11300100C9447000C9447000C9447000C948702FE
S11300200C9447000C9447000C9447000C94470030
S11300300C9447000C9447000C9447000C94470020
S11300400C9447000C9447000C9447000C94470010
S11300500C94470011241FBECFE5D8E0DEBFCDBF0E
S113006010E0A0E6B0E0EAE9FCE002C005900D92E1
S1130070AA36B107D9F726E0AAE6B0E001C01D927E
S1130080A83AB207E1F70E9413010C944B060C94B2
S11300900000CF93DF93EC010E94A70480916A00D3
S11300A090916B00892B31F48FE690E090936B0074
S11300B080936A0020916C0030916D00C9018C0F0F
S11300C09D1F8B3D45E0940770F42817390770F4A1
S11300D0C0916A00D0916B00C20FD31F90936D0042
S11300E080936C0005C0C0E0D0E002C0C0E0D0E066
S11300F00E946B05CE01DF91CF9108950895FC0114
S11301000396928381832FEF3FEF34832383968377
S113011085839087878310820895FC011186108659
S11301200895CF93DF939C01FB01DC011196CD91DF
S1130130DC911297D383C2838C819D8195838483C0
S11301408C819D81DC0113967C936E9312977D8341
S11301506C8331872087F90180818F5F8083DF91F1
S1130160CF910895CF93DF93EB01488159814F3F9D
S11301702FEF520721F4FC01A781B0850DC0DC01EB
S1130180139601C0DF011296ED91FC911397208123
S1130190318142175307B0F71296ED91FC911397F2
S11301A0FB83EA83D583C483BD83AC831396DC933A
S11301B0CE93129799878887FC0120812F5F208333
S11301C0DF91CF910895CF93DF93FC01A085B18592
S11301D0C281D381848195819D838C83C481D5819F
S11301E0828193819B838A8311968D919C9112972E
S11301F0E817F90731F48481958112969C938E93C4
S11302001197118610868C9181508C938C91DF917B
S1130210CF91089595B384E0892785BB84EF91E05D
S11302200E94E105F7CFCF93DF9300D0CDB7DEB7BF
S11302301A82198284B3846084BBCE0101967C0146
S113024001E020E030E042E350E060E670E08AE064
S113025091E00E9429040E947D04FFCF1BBC89EF1A
S11302608ABD8BE08EBD89B7806189BF089531E175
S1130270FC013083319722E220833197A3E3A083EA
S1130280319760833197708331971082319760E89A
S1130290608331971082319762E06083319763E025
S11302A06083319764E06083319765E060833197C0
S11302B066E06083319767E06083319768E060832C
S11302C0319769E06083319760E1608331973083CF
S11302D0319732E13083319733E13083319734E120
S11302E03083319735E13083319736E1308331976C
S11302F037E13083319738E13083319739E1308306
S1130300319730E23083319731E230833197208363
S1130310319723E22083319740833197508331977B
S113032026E22083319727E22083319728E2208335
S1130330319729E22083319720E32083319721E309
S11303402083869708950E942E01A091A606B0915D
S1130350A706CD91CDBFDD91DEBFFF91EF91DF9177
S1130360CF91BF91AF919F918F917F916F915F9149
S11303704F913F912F911F910F91FF90EF90DF903C
S1130380CF90BF90AF909F908F907F906F905F9031
S11303904F903F902F901F900F900FBE0F90089595
S11303A081E008950F920FB6F8940F921F921124D2
S11303B02F923F924F925F926F927F928F929F9271
S11303C0AF92BF92CF92DF92EF92FF920F931F935F
S11303D02F933F934F935F936F937F938F939F9349
S11303E0AF93BF93CF93DF93EF93FF93A091A606B0
S11303F0B091A7060DB60D920EB60D920E94F705A8
S1130400A091A606B091A706CD91CDBFDD91DEBF28
S1130410FF91EF91DF91CF91BF91AF919F918F9118
S11304207F916F915F914F913F912F911F910F9108
S1130430FF90EF90DF90CF90BF90AF909F908F9000
S11304407F906F905F904F903F902F901F900F90F0
S11304500FBE0F9008950F920FB6F8940F921F924B
S113046011242F923F924F925F926F927F928F92BC
S11304709F92AF92BF92CF92DF92EF92FF920F932F
S11304801F932F933F934F935F936F937F938F9318
S11304909F93AF93BF93CF93DF93EF93FF93A09179
S11304A0A606B091A7060DB60D920EB60D920E9447
S11304B0AD0481110E94F705A091A606B091A7068C
S11304C0CD91CDBFDD91DEBFFF91EF91DF91CF9153
S11304D0BF91AF919F918F917F916F915F914F9158
S11304E03F912F911F910F91FF90EF90DF90CF904C
S11304F0BF90AF909F908F907F906F905F904F9040
S11305003F902F901F900F900FBE0F9008950E9460
S11305102B021895E0916E06F0916F06808181118F
S113052007C08FEF9FEF90934E0680934D0608957A
S1130530E0916E06F0916F060580F681E02D06804D
S1130540F781E02D8281938190934E0680934D062E
S11305500895CF93DF93EC018F89988D0E947E00DC
S1130560CE010E947E00DF91CF9108956F927F9219
S11305708F929F92AF92BF92CF92DF92EF920F939E
S11305801F93CF93DF93CDB7DEB74C01F501878975
S1130590908D215031093C01620E731E6115710565
S11305A089F416C0822F90E0FB01E80FF91F308117
S11305B0D501A80FB91F59963C938081882329F04F
S11305C02F5F01C020E0283068F3F50110A202C0BB
S11305D0F501118EF3E0FE1520F40F2EF3E0EF2E5B
S11305E0F02DF501E68AC50102960E948D00C50131
S11305F00C960E948D00F501B186A08684E090E0FF
S11306008E19910995878487B38AA28A11A212A2AE
S113061013A214A215A2A801B401C3010E943701B8
S1130620F50191838083C114D10419F0F601B182DC
S1130630A082DF91CF911F910F91EF90DF90CF9027
S1130640BF90AF909F908F907F906F900895CF93BD
S1130650C0E010C08C2F90E09C01220F331F220FAA
S1130660331F220F331F820F931F8E57994F0E94FF
S11306707F00CF5FC43070F389E796E00E947F006B
S113068080E796E00E947F0083E696E00E947F0068
S11306908AE596E00E947F0089E796E090936F06D2
S11306A080936E0680E796E090936D0680936C06C7
S11306B0CF910895CF93DF93EC010FB6F8940F9286
S11306C0809158068F5F809358068091A60690917A
S11306D0A706892B59F4D093A706C093A606809148
S11306E05806813099F40E94270310C08091540663
S11306F081110CC0E091A606F091A70696898E8917
S1130700891720F0D093A706C093A60680914F06C0
S11307108F5F80934F068E8990915506981710F439
S11307208093550690E09C01220F331F220F331F44
S1130730220F331F820F931FBE016E5F7F4F8E57B0
S1130740994F0E9491000F900FBE80915406882308
S113075051F0E091A606F091A70696898E89981724
S113076010F40E94D201DF91CF910895CF93DF93CB
S11307701CC00FB6F8940F92E0915F06F0916006EA
S1130780C681D781CE0102960E94E300809158066B
S11307908150809358068091590681508093590660
S11307A00F900FBECE010E94A902809159068111BB
S11307B0E0CFDF91CF9108950E94B6038091820625
S11307C08230D0F30E94D201F7CF0F931F93CF93BF
S11307D0DF93EC0100915606109157068091A6060E
S11307E09091A70602960E94E300C00FD11FE091EA
S11307F0A606F091A706D383C283C017D10768F475
S11308006091A6067091A70680916C0690916D0682
S11308106E5F7F4F0E94B20017C06091A606709170
S1130820A70680916E0690916F066E5F7F4F0E94BF
S1130830B20080914D0690914E06C817D90720F456
S1130840D0934E06C0934D06DF91CF911F910F9127
S113085008952F923F924F925F926F927F928F9260
S11308609F92AF92BF92CF92DF92EF92FF920F933B
S11308701F93CF93DF933C011B015A012901CA0145
S11308800E9449006C01892B71F086E290E00E947D
S11308904900EC01892B19F0D88ECF8A06C0C60115
S11308A00E947E0002C0C0E0D0E0209791F0950144
S11308B040E050E0812C912C5E016701E02E820122
S11308C0B101C3010E94B602CE010E945A0381E025
S11308D001C08FEFDF91CF911F910F91FF90EF90A7
S11308E0DF90CF90BF90AF909F908F907F906F904C
S11308F05F904F903F902F900895EF92FF920F9347
S11309000F2EFBE4EF2EF6E0FF2EF02D00E020E0AA
S113091030E045E550E064E670E08CED93E00E9441
S11309202904813081F4F8948FEF9FEF90934E0661
S113093080934D0681E080935406109257061092DE
S113094056060E94A3010F91FF90EF9008958091A5
S11309504A068F5F80934A060895DF92EF92FF92D2
S11309600F931F93CF93DF9380914A0681119DC00B
S1130970E0905606F09057068FEFE81AF80AF092C6
S11309805706E0925606E114F104B9F480916E061C
S113099090916F0620916C0630916D0630936F062E
S11309A020936E0690936D0680936C06809150069A
S11309B08F5F809350060E948A0280914D06909129
S11309C04E06E816F90628F4D12C53C0DD24D3943E
S11309D001C0D12CE0916E06F0916F0680818111E7
S11309E007C08FEF9FEF90934E0680934D0641C052
S11309F0E0916E06F0916F060580F681E02DC681C8
S1130A00D7818A819B81E816F90628F490934E06D3
S1130A1080934D062EC08E010E5F1F4FC8010E94A9
S1130A20E3008C899D89892B21F0CE010C960E94CC
S1130A30E3008E8990915506981710F4809355061B
S1130A4090E09C01220F331F220F331F220F331F0C
S1130A50820F931FB8018E57994F0E9491009E896F
S1130A60E091A606F091A7068689981708F0AECF04
S1130A70B1CFE091A606F091A706868990E0FC012B
S1130A80EE0FFF1FEE0FFF1FEE0FFF1F8E0F9F1FB6
S1130A90FC01EE57F94F8081823010F0DD24D394AD
S1130AA08091510681110CC00DC080915206909125
S1130AB0530601969093530680935206D12C02C09C
S1130AC0DD24D3948D2DDF91CF911F910F91FF9051
S1130AD0EF90DF9008950F931F93CF93DF930FB69A
S1130AE0F8940F9280914A06815080934A0680912F
S1130AF04A0681115CC080915806811133C05AC0E6
S1130B00E0916806F0916906C681D781CE010C9602
S1130B100E94E3008E010E5F1F4FC8010E94E30094
S1130B208E8990915506981710F48093550690E09D
S1130B309C01220F331F220F331F220F331F820FFA
S1130B40931FB8018E57994F0E9491009E89E0919E
S1130B50A606F091A7068689981730F081E0809365
S1130B60510602C0C0E0D0E0809163068111C8CF75
S1130B70CD2B11F00E948A02C0915206D0915306E7
S1130B80209769F00E94AD04882319F081E08093D6
S1130B9051062197B9F7109253061092520680918C
S1130BA05106882331F00E94D20181E003C080E025
S1130BB001C080E00F900FBEDF91CF911F910F9184
S1130BC00895CF93DF93EC01892B49F00E94A70489
S1130BD060E0CE010E94E5030E946B0501C080E045
S1130BE0811102C00E94D201DF91CF9108958091BA
S1130BF04A06882321F081E08093510608951092DB
S1130C0051062091550601C02150822F90E0FC012D
S1130C10EE0FFF1FEE0FFF1FEE0FFF1FE80FF91F70
S1130C20EE57F94F3081332379F3AC01440F551F4C
S1130C30440F551F440F551F480F591FDF010180F2
S1130C40F281E02D0280F381E02D1296FC93EE9365
S1130C5011974B57594FE417F50729F442815381F3
S1130C60FD0152834183FC01EE0FFF1FEE0FFF1FB6
S1130C70EE0FFF1F8E0F9F1FFC01EE57F94F0180EF
S1130C80F281E02D868197819093A7068093A60632
S10D0C90209355060895F894FFCF51
S10D0C9A4C45440049444C45000059
S9030000FC
