S0150000696E7075745F636170747572652E737265638C
S11300000C942A000C9434000C9434000C943400A6
S11300100C9434000C9434000C944A000C94340076
S11300200C9434000C9434000C9434000C9434007C
S11300300C9434000C9434000C9434000C9434006C
S11300400C9434000C9434000C9434000C9434005C
S11300500C94340011241FBECFE5D8E0DEBFCDBF21
S11300600E9436000C945C000C94000089B78062F6
S113007089BF84B3886084BB81B38F7B81BB80B329
S11300808F7B80BB8EB580648EBD8EB583608EBD44
S11300907894FFCF1F920F920FB60F9211248F9373
S11300A09F9395B388E0892785BB9F918F910F908B
S10F00B00FBE0F901F901895F894FFCF1E
S9030000FC
