S01200005457495F4D61737465722E7372656353
S11300000C942A000C943F000C943F000C943F0085
S11300100C943F000C943F000C943F000C943F0060
S11300200C943F000C943F000C943F000C943F0050
S11300300C943F000C943F000C943F000C943F0040
S11300400C943F000C943F000C943F000C943F0030
S11300500C943F0011241FBECFE5D8E0DEBFCDBF16
S113006010E0A0E6B0E0E4E5F2E002C005900D92F5
S1130070A03AB107D9F70E94E7000C9428010C9428
S1130080000080E0A0C0982F969596959695282F0D
S11300902770913061F138F0923009F44CC09330FC
S11300A009F46DC08FC0E82FF0E0EE0FFF1FE05A97
S11300B0FF4F9081913069F49AB341E050E0BA0166
S11300C002C0660F771F2A95E2F79B01292B2ABBF2
S11300D079C09AB341E050E0BA0102C0660F771FBD
S11300E02A95E2F79B01209529232ABB6BC0E82FB0
S11300F0F0E0EE0FFF1FE05AFF4F9081913069F45A
S113010097B341E050E0BA0102C0660F771F2A9509
S1130110E2F79B01292B27BB55C097B341E050E080
S1130120BA0102C0660F771F2A95E2F79B0120955A
S1130130292327BB47C0E82FF0E0EE0FFF1FE05A4A
S1130140FF4F9081913069F494B341E050E0BA01DB
S113015002C0660F771F2A95E2F79B01292B24BB67
S113016031C094B341E050E0BA0102C0660F771F7A
S11301702A95E2F79B012095292324BB23C0E82F6D
S1130180F0E0EE0FFF1FE05AFF4F9081913069F4C9
S113019091B341E050E0BA0102C0660F771F2A957F
S11301A0E2F79B01292B21BB0DC091B341E050E044
S11301B0BA0102C0660F771F2A95E2F79B012095CA
S11301C0292321BB8F5F803208F45DCF08950E94FC
S11301D0410085E00E940C010E9416018830E1F77D
S11301E082E00E941F018831B9F78DE40E941F014B
S11301F0883291F70E9406012FEF83ED90E321509E
S113020080409040E1F700C00000E6CF86B78469E3
S113021086BF089582B9089510B80E940A0186B76E
S1130220846886BF089581B1887F089586B7846AFB
S113023086BF06B607FEFDCF0E941301089583B959
S113024084E886BF06B607FEFDCF0E941301089519
S1070250F894FFCF4C
S11302540101010101010101010101010101010186
S11302640101010101010101010101010101010176
S11302740101010101010101010101010101010166
S11302840000010101010101010101010101010158
S9030000FC
