:020000040800F2
:100000000000012061020008650200086702000884
:100010007D0200087F020008950200080000000031
:10002000000000000000000000000000AB0200081B
:10003000AD02000800000000AF020008B102000895
:10004000C5020008C5020008C5020008C502000874
:10005000C5020008C502000835070008C5020008EF
:10006000C5020008C5020008C5020008C502000854
:10007000C5020008C5020008C5020008C502000844
:10008000C5020008C5020008C50200080000000003
:10009000000000000000000000000000C502000891
:1000A000C5020008C5020008C5020008C502000814
:1000B000C5020008C5020008C5020008C502000804
:1000C000C5020008C5020008C5020008C5020008F4
:1000D000C5020008C5020008C502000800000000B3
:1000E000C5020008C5020008C502000800000000A3
:1000F000000000000000000000000000C502000831
:1001000000000000C5020008C5020008C502000882
:1001100000000000000000000000000000000000DF
:10012000C5020008C5020008C5020008C502000893
:10013000C5020008000000000000000000000000F0
:10014000000000000000000000000000C5020008E0
:10015000C5020008C5020008C5020008C502000863
:10016000C5020008C50200080000000000000000F1
:10017000000000000000000000000000000000007F
:1001800000000000C50200080000000000000000A0
:10019000C502000807B500F0B7F8274B274883428F
:1001A00026D3274B274900208B422DD300F0D2FACB
:1001B000254E264C01A9684600F09EF8A41BA41009
:1001C0000025AC4229DC224E224CA41BA4100025A1
:1001D000AC4227DCDDE9000100F0BDFA1E4D1F4CEA
:1001E000641B0646A410002C21DC304600F080F889
:1001F000D3E900120C3353F8044C891A9442CED937
:10020000555815600432F9E753F8082B53F8044C9D
:100210009442C9D910600432FAE756F8253098475D
:100220000135CEE756F8253098470135D0E7013C37
:1002300055F824309847D6E7C8020008E0020008C5
:10024000E0020008F0020008F0020008F0020008D6
:10025000F0020008F0020008F0020008F0020008B6
:1002600014480047FEE71EF0040F0CBFEFF30880B0
:10027000EFF309807146104A1047FEE7FEE71EF0D3
:10028000040F0CBFEFF30880EFF3098071460B4AAF
:100290001047FEE71EF0040F0CBFEFF30880EFF3EA
:1002A00009807146064A1047FEE7FEE7FEE7FEE7D3
:1002B00070470000950100087B02000893020008C7
:0602C000A9020008FEE7A0
:1002C800CC0700080000002008000020CC07000828
:1002D800000000100000001008000020100000209E
:0802E8000000001000000010EE
:1002F00008B500F015F8000001230360014B0B6006
:10030000704700BF0000002008B500F01BF8024B4A
:10031000024A9A6008BD00BF00ED00E0000000083E
:10032000BFF34F8F0549064BCA6802F4E0621343DE
:10033000CB60BFF34F8F00BFFDE700BF00ED00E0D3
:100340000400FA050C4B1A68002142F001021A6001
:1003500099601A6822F0847222F480321A60074A87
:100360005A601A6822F480221A60D960044B4FF058
:1003700000629A60704700BF0038024010300024CD
:1003800000ED00E0024A136843F002031360704777
:1003900010E000E07FB5274B1A6842F001021A60B6
:1003A0001A6842F002021A601A6842F004021A60E7
:1003B0001A6822F0380242F028021A601A6822F005
:1003C00080021A601A6842F040021A601A6842F409
:1003D00000721A601A6842F480721A601A6822F475
:1003E00000621A60144B9A798DF806201A46186834
:1003F000009052F8070F9988029053F80E0FADF84D
:10040000041091889279ADF80C108DF80E200490AC
:100410009A889B79ADF8142068468DF8163000F064
:100420006BF902A800F068F904A800F065F907B0BC
:100430005DF804FB00300140B6070008034BD860AC
:100440009A681206FCD4D86880B270470030014028
:10045000114B5A6800225A605A6842F4403242F402
:100460004C725A601A6842F480321A601A6842F07C
:1004700001021A601A6842F400221A601A6842F0F7
:1004800080721A601A6842F480221A609A6842F0F8
:1004900001029A60704700BF003802401F2924D82B
:1004A000032822D8DFE800F0020A121A0F4A0123BB
:1004B000106B03FA01F10143116370470B4A0123EA
:1004C000506B03FA01F1014351637047074A01235E
:1004D000106C03FA01F1014311647047034A0123D0
:1004E000506C03FA01F10143516470470038024037
:1004F000012810B511D002D3022810D010BD094B2D
:100500001868490003248C4020EA04001860186829
:1005100002FA01F101431960F0E7034BF0E7034BE6
:10052000EEE700BF00000240000402400008024065
:10053000A2B901280AD002D302280DD07047134B6C
:10054000586801228A4002435A607047104B5A682B
:1005500088401043586070470E4BF1E7012AF4D1F0
:10056000012809D002D302280DD07047074B5868E4
:100570008A4020EA0202E7E7054A5368884023EAF6
:10058000000050607047034BF1E700BF00000240DD
:100590000004024000080240012810B511D002D327
:1005A000022810D010BD094B9868490003248C40E4
:1005B00020EA04009860986802FA01F1014399600A
:1005C000F0E7034BF0E7034BEEE700BF000002400B
:1005D0000004024000080240012810B511D002D3E7
:1005E000022810D010BD094BD868490003248C4064
:1005F00020EA0400D860D86802FA01F10143D9600A
:10060000F0E7034BF0E7034BEEE700BF00000240CA
:100610000004024000080240012A13D1012809D039
:1006200002D302280CD07047124B58698A4002430B
:100630005A617047104B5A6988401043586170479F
:100640000E4BF2E762B901280BD002D302280FD07B
:1006500070470848436901228A4023EA0202426146
:100660007047054A5369884023EA0000506170478B
:100670000248EFE700000240000402400008024088
:10068000072910B517D8012811D002D3022810D09D
:1006900010BD164B186A89000F248C4020EA040014
:1006A0001862186A02FA01F101431962F0E7104B6F
:1006B000F0E7104BEEE70839CBB2072BE8D801285A
:1006C00012D003D30228E3D10A4B00E0074B586A4B
:1006D00089000F248C4020EA04005862586A02FA0C
:1006E00001F101435962D3E7014BF0E700000240FA
:1006F000000402400008024010B5044682784178A8
:100700000078FFF7F5FEE27861782078FFF710FFB8
:10071000227961782078FFF73FFF6279617820784D
:10072000FFF75AFFA27961782078BDE81040FFF703
:10073000A7BF000008B5054B1B6803B19847044AE2
:10074000536943F00103536108BD00BF0C00002052
:10075000003C0140704713B5FFF77AFE00210846C0
:10076000FFF79CFE0E210320FFF798FE0C210320CB
:10077000FFF794FE0024FFF705FEFFF70BFE40F2A3
:10078000011300946846CDF80340ADF8023002230F
:100790008DF80430FFF7B0FF4D20FFF74FFEC0B2D9
:1007A0004D289DF801109DF800000CBF0122224643
:1007B000FFF732FFFEE70007020102000500060214
:0B07C000010200050005020102000517
:0807CC000800002000000000FD
:040000050800019559
:00000001FF
