:100000000C942A000C9434000C9434000C943400AA
:100010000C9434000C9434000C9434000C94340090
:100020000C9434000C9434000C9434000C94340080
:100030000C9434000C9434000C9434000C94340070
:100040000C9434000C9434000C9434000C94340060
:100050000C94340011241FBECFE5D8E0DEBFCDBF25
:100060000E9460000C947C000C9400008D3419F008
:10007000833571F019C087B3806187BB87B3806215
:1000800087BB87B3806887BB87B38F7B87BB0CC078
:1000900087B38F7E87BB87B38F7D87BB87B38F770F
:1000A00087BB87B3806487BB88B3806188BB8DB111
:1000B00081658DB908958FB9779BFECF8FB1089573
:1000C00084B3826084BB8DE40E94360088B38F7E47
:1000D00088BB82E30E945B008535D9F795B382E047
:1000E000892785BB2FEF89E698E121508040904019
:0C00F000E1F700C00000EDCFF894FFCF56
:00000001FF
