S01600006B65797061645F6C6179657265642E737265634B
S11300000C942A000C9434000C9434000C943400A6
S11300100C9434000C9434000C9434000C9434008C
S11300200C9434000C9434000C9434000C9434007C
S11300300C9434000C9434000C9434000C9434006C
S11300400C9434000C9434000C9434000C9434005C
S11300500C94340011241FBECFE5D8E0DEBFCDBF21
S11300600E9436000C947F000C9400008AB3806FC9
S11300708ABB87B3866087BB40E03EC03BB350E198
S1130080259FC0011124932F9F70892B8BBB88B3AC
S1130090826088BB8FEF93EC39E081509040304010
S11300A0E1F700C0000088B38D7F88BB5FEF89E66D
S11300B098E1515080409040E1F700C000003BB30C
S11300C050E1459FC00111243F70832B8BBB88B343
S11300D0846088BB8FEF95EA3EE0815090403040C9
S11300E0E1F700C0000088B38B7F88BB2F5F01C09D
S11300F020E02A3018F24F5F4A30D0F3BDCFF89495
S1050100FFCF2B
S9030000FC
