S00E0000454550524F4D2E737265634E
S11300000C942A000C943F000C943F000C943F0085
S11300100C943F000C943F000C943F000C943F0060
S11300200C943F000C943F000C943F000C943F0050
S11300300C943F000C943F000C943F000C943F0040
S11300400C943F000C943F000C943F000C943F0030
S11300500C943F0011241FBECFE5D8E0DEBFCDBF16
S113006010E0A0E6B0E0ECE6F5E002C005900D92E9
S1130070A03AB107D9F70E9423020C94B4020C945D
S11300800000982F9695969596958770913021F15A
S113009030F09230F1F1933009F458C00895613092
S11300A069F44BB321E030E0B90102C0660F771F59
S11300B08A95E2F7CB01842B8BBB08954BB321E0E7
S11300C030E0B90102C0660F771F8A95E2F7CB01D1
S11300D0809584238BBB0895613069F448B321E093
S11300E030E0B90102C0660F771F8A95E2F7CB01B1
S11300F0842B88BB089548B321E030E0B90102C0E5
S1130100660F771F8A95E2F7CB018095842388BB1D
S11301100895613069F445B321E030E0B90102C0CB
S1130120660F771F8A95E2F7CB01842B85BB089570
S113013045B321E030E0B90102C0660F771F8A950C
S1130140E2F7CB018095842385BB0895613069F47F
S113015042B321E030E0B90102C0660F771F8A95EF
S1130160E2F7CB01842B82BB089542B321E030E057
S1130170B90102C0660F771F8A95E2F7CB0180951B
S1130180842382BB0895813041F028F0823039F015
S1130190833039F008956BBB089568BB089565BB3F
S11301A0089562BB089580E0A0C0982F9695969517
S11301B09695282F2770913061F138F0923009F428
S11301C04CC0933009F46DC08FC0E82FF0E0EE0FFF
S11301D0FF1FE05AFF4F9081913069F49AB341E0D8
S11301E050E0BA0102C0660F771F2A95E2F79B011F
S11301F0292B2ABB79C09AB341E050E0BA0102C06E
S1130200660F771F2A95E2F79B01209529232ABBC5
S11302106BC0E82FF0E0EE0FFF1FE05AFF4F908114
S1130220913069F497B341E050E0BA0102C0660F1F
S1130230771F2A95E2F79B01292B27BB55C097B35B
S113024041E050E0BA0102C0660F771F2A95E2F739
S11302509B012095292327BB47C0E82FF0E0EE0F30
S1130260FF1FE05AFF4F9081913069F494B341E04D
S113027050E0BA0102C0660F771F2A95E2F79B018E
S1130280292B24BB31C094B341E050E0BA0102C031
S1130290660F771F2A95E2F79B012095292324BB3B
S11302A023C0E82FF0E0EE0FFF1FE05AFF4F9081CC
S11302B0913069F491B341E050E0BA0102C0660F95
S11302C0771F2A95E2F79B01292B21BB0DC091B31F
S11302D041E050E0BA0102C0660F771F2A95E2F7A9
S11302E09B012095292321BB8F5F803208F45DCFC9
S11302F00895CF93C82F682F607F80E00E94C300C9
S11303008FE39FE10197F1F700C0000060E089E00E
S11303100E94410060E08BE00E9441008FE39FE176
S11303200197F1F700C0000061E08BE00E944100FA
S11303306C2F6295607F80E00E94C30060E089E0DA
S11303400E94410060E08BE00E9441008FE39FE146
S11303500197F1F700C0000061E08BE00E944100CA
S11303608FE39FE10197F1F700C00000CF9108955A
S113037060E08AE00E9441002FEF89EF90E0215075
S113038080409040E1F700C0000083E30E947901BF
S11303908FE39FE10197F1F700C0000082E30E9420
S11303A0790188E20E94790186E00E9479018CE05B
S11303B00E94790181E00E9479018FE99FE0019711
S11303C0F1F700C000000895CF93C82F682F607F15
S11303D080E00E94C30061E089E00E94410060E087
S11303E08BE00E9441008FE39FE10197F1F700C089
S11303F0000061E08BE00E9441008FE39FE10197E0
S1130400F1F700C000006C2F6295607F80E00E94CD
S1130410C30061E089E00E94410060E08BE00E943B
S113042041008FE39FE10197F1F700C0000061E014
S11304308BE00E9441008FE39FE10197F1F700C038
S11304400000CF91089585E00E9446020E94D300E7
S11304500E94B80160E082E30E94640280E00E948E
S113046080028233F1F794B3946094BB2FEF33EDA1
S113047090E3215030409040E1F700C00000F1CFFC
S113048086B7846986BF089582B9089510B80E941A
S1130490440286B7846886BF089581B1887F089531
S11304A086B7846A86BF06B607FEFDCF0E944D025A
S11304B0089583B984E886BF06B607FEFDCF0E947F
S11304C04D02089583B10895CF93DF93D82FC62F9B
S11304D00E945002883089F480EA0E9459028831CF
S11304E061F48C2F0E945902883239F48D2F0E94B6
S11304F05902883211F40E944002DF91CF9108958D
S1130500CF93C82F0E945002883011F580EA0E94D0
S113051059028831F9F48C2F0E9459028832E1F48F
S113052083E70E94E4010E9450028031B9F489E714
S11305300E94E40181EA0E945902803489F486E72A
S11305400E94E4010E946202C82F0E94400209C076
S1130550C0E007C0C0E005C0C0E003C0C0E001C007
S10F0560C0E08C2FCF910895F894FFCFD9
S113056C010101010101010101010101010101016B
S113057C010101010101010101010101000001015D
S113058C010101010100010101010101010101014C
S113059C000001010000010101010101010101013F
S9030000FC
