S01300005350495F6C6179657265642E73726563E0
S11300000C942A000C9434000C9434000C943400A6
S11300100C9434000C9434000C9434000C9434008C
S11300200C9434000C9434000C9434000C9434007C
S11300300C9434000C9434000C9434000C9434006C
S11300400C9434000C9434000C9434000C9434005C
S11300500C94340011241FBECFE5D8E0DEBFCDBF21
S11300600E9436000C9491000C940000CF93DF930F
S113007000D0CDB7DEB7198280E18A8384B3826071
S113008084BBCE0101960E945B0088B38F7E88BB3F
S113009082E30E948C008535D9F795B382E08927E5
S11300A085BB2FEF89E698E1215080409040E1F72D
S11300B000C00000EDCFFC012081222319F0213083
S11300C0A1F01FC027B3206127BB27B3206227BB41
S11300D027B3206827BB27B32F7B27BB28B3206116
S11300E028BB2DB120612DB90CC027B32F7E27BBAF
S11300F027B32F7D27BB27B32F7727BB27B32064D4
S113010027BBFC018181803119F48DB181608DB9E7
S11301108DB180648DB908958FB9779BFECF8FB16F
S10901200895F894FFCFDE
S9030000FC
