:100000000C942A000C9447000C9447000C94470071
:100010000C9447000C9447000C9447000C94A102E8
:100020000C9447000C9447000C9447000C94470034
:100030000C9447000C9447000C9447000C94470024
:100040000C9447000C9447000C9447000C94470014
:100050000C94470011241FBECFE5D8E0DEBFCDBF12
:1000600010E0A0E6B0E0E8EFF5E102C005900D92E7
:10007000A63AB107D9F726E0A6EAB0E001C01D9282
:10008000A63EB207E1F70E9416010C94FA0A0C94FE
:100090000000CF93DF93EC010E9465078091A600DA
:1000A0009091A700892B31F48AEA90E09093A70001
:1000B0008093A6002097C9F08091A8009091A90094
:1000C0009E01280F391F2B3D45E0340788F4821725
:1000D000930788F4C091A600D091A700C80FD91F3C
:1000E0003093A9002093A80008C0C0E0D0E005C06C
:1000F000C0E0D0E002C0C0E0D0E00E948508CE01A0
:10010000DF91CF9108950895FC0103969283818336
:100110002FEF3FEF348323839683858390878783F4
:1001200010820895FC01118610860895CF93DF9305
:10013000EB01488159814F3F2FEF520721F4FC0119
:10014000A781B0850DC0DC01139601C0DF011296B6
:10015000ED91FC9113972081318142175307B0F73D
:100160001296ED91FC911397FB83EA83D583C483A8
:10017000BD83AC831396DC93CE93129799878887BF
:10018000FC0120812F5F2083DF91CF910895CF93D1
:10019000DF93FC01A085B185C281D38184819581E3
:1001A0009D838C83C481D581828193819B838A8343
:1001B00011968D919C911297E817F90731F484817B
:1001C000958112969C938E931197118610868C912F
:1001D00081508C938C91DF91CF910895EC0120E0B8
:1001E00042E350E0BE018091E4069091E5060E9452
:1001F0000A040E94EC01F3CFCF93DF9300D000D02C
:10020000CDB7DEB742E350E0BE016F5F7F4F809114
:10021000E4069091E5060E949C0489819A810E94DF
:10022000CA0A8B819C810E94CA0AECCF0E94BE0A36
:1002300040E064E082E00E94C9039093E506809369
:10024000E406892B21F1E12CF12C02E028E930E0D1
:1002500044E650E061E670E08EEE90E00E94E00639
:100260002CE930E044E650E069E670E08EEE90E084
:100270000E94E00601E020E030E044E650E061E763
:1002800070E08CEF90E00E94E0060E943907FFCFFB
:100290001BBC89EF8ABD8BE08EBD89B7806189BFA9
:1002A000089531E1FC013083319722E220833197B8
:1002B000A3E3A083319760833197708331971082D5
:1002C000319760E8608331971082319762E06083F4
:1002D000319763E06083319764E06083319765E034
:1002E0006083319766E06083319767E06083319780
:1002F00068E06083319769E06083319760E16083F3
:1003000031973083319732E13083319733E1308355
:10031000319734E13083319735E13083319736E1DD
:100320003083319737E13083319738E1308331972B
:1003300039E13083319730E23083319731E23083D5
:1003400031972083319723E220833197408331977F
:100350005083319726E22083319727E2208331971B
:1003600028E22083319729E22083319720E32083FC
:10037000319721E32083869708950E944801A09138
:10038000E206B091E306CD91CDBFDD91DEBFFF91D6
:10039000EF91DF91CF91BF91AF919F918F917F911D
:1003A0006F915F914F913F912F911F910F91FF900E
:1003B000EF90DF90CF90BF90AF909F908F907F9005
:1003C0006F905F904F903F902F901F900F900FBEB7
:1003D0000F90089581E008950F920FB6F8940F9250
:1003E0001F9211242F923F924F925F926F927F92B1
:1003F0008F929F92AF92BF92CF92DF92EF92FF9235
:100400000F931F932F933F934F935F936F937F931C
:100410008F939F93AF93BF93CF93DF93EF93FF930C
:10042000A091E206B091E3060DB60D920EB60D92C4
:100430000E945A09A091E206B091E306CD91CDBF8A
:10044000DD91DEBFFF91EF91DF91CF91BF91AF9131
:100450009F918F917F916F915F914F913F912F91DC
:100460001F910F91FF90EF90DF90CF90BF90AF90D2
:100470009F908F907F906F905F904F903F902F90C4
:100480001F900F900FBE0F9008950F920FB6F89423
:100490000F921F9211242F923F924F925F926F9270
:1004A0007F928F929F92AF92BF92CF92DF92EF9204
:1004B000FF920F931F932F933F934F935F936F93ED
:1004C0007F938F939F93AF93BF93CF93DF93EF93DC
:1004D000FF93A091E206B091E3060DB60D920EB621
:1004E0000D920E946B0781110E945A09A091E206A9
:1004F000B091E306CD91CDBFDD91DEBFFF91EF91CD
:10050000DF91CF91BF91AF919F918F917F916F912B
:100510005F914F913F912F911F910F91FF90EF901D
:10052000DF90CF90BF90AF909F908F907F906F9013
:100530005F904F903F902F901F900F900FBE0F90A5
:1005400008950E94450218950FB6F8940F92FC0189
:10055000828D811102C081E001C080E00F900FBE4A
:1005600008950FB6F8940F92FC01228D838D281305
:1005700002C081E001C080E00F900FBE08950F938C
:100580001F93CF93DF93EC01042F1A8D4C8D4423DE
:10059000B9F1011116C050E08A819B810E94F10AD5
:1005A0002C8D8A819B81820F911D9B838A832C8154
:1005B0003D818217930720F1888199819B838A83EB
:1005C0001FC050E08E819F810E94F10A8C8D90E0C7
:1005D0009195819591092E813F81280F391F3F8385
:1005E0002E83488159812417350730F42C813D81B1
:1005F000820F931F9F838E83023011F411111150CB
:100600001F5F1A8F80E0DF91CF911F910F910895A6
:10061000FC01448D4423A9F050E026813781240F4A
:10062000351F37832683848195812817390720F069
:100630008081918197838683CB01668177810E9437
:10064000F10A08951F93CF93DF93EC010FB6F8944E
:100650000F921E8D0BC08989882351F0CE014196DF
:100660000E94C00981110E94BA0A115011169CF310
:100670008FEF8E8F0F900FBE0FB6F8940F921D8DD7
:100680000BC08885882351F0CE0108960E94C009CE
:1006900081110E94BA0A115011169CF38FEF8D8FB1
:1006A0000F900FBEDF91CF911F9108950F931F936D
:1006B000CF93DF93FC01362F892B09F44DC0238D96
:1006C000222309F44BC0022F10E08FEF9FEFB801F7
:1006D0000E94DD0A448D842F90E06817790708F4A2
:1006E0003FC0EF010FB6F8940F9260817181FB015A
:1006F000249FE00DF11D1124FD83EC831A8E7B8372
:100700006A8301501109809FA001819F500D909F25
:10071000500D1124CB01840F951F9F838E838FEF83
:100720008D8F8E8F31110CC08885882389F0CE0182
:1007300008960E94C009882359F00E94EC0108C065
:10074000CE0108960E948400CE0141960E9484004A
:100750000F900FBE81E005C080E003C080E001C0C3
:1007600080E0DF91CF911F910F9108950F931F9318
:10077000F801611103C01183008302C051834083DB
:10078000838F648F61E0CF010E9456031F910F9108
:100790000895DF92EF92FF920F931F93CF93DF9311
:1007A000382FE62F882329F1682F70E08FEF9FEF15
:1007B0000E94DD0A8E2F90E068177907E8F03E9FCF
:1007C000C0011124813E2FEF9207C8F4D42EDE2FF2
:1007D000C32F4F960E9449007C01009791F08C0135
:1007E0002D2DAC01415E5F4F6D2F8C2F0E94B60303
:1007F00008C0E12CF12C05C0E12CF12C02C0E12C49
:10080000F12CC701DF91CF911F910F91FF90EF90D5
:10081000DF900895CF92DF92EF92FF920F931F9394
:10082000CF93DF9300D000D01F92CDB7DEB78C01FD
:100830007B015D834C83C22ED12C0FB6F8940F92AE
:10084000F801928D838D981718F0F2E0CF1219C03D
:100850004C2DB701C8010E94BF02F801918999236C
:1008600049F0C80141960E94C009882331F00E94D6
:10087000EC0103C081110E94EC010F900FBE81E0DA
:100880004DC08C819D81892B21F40F900FBE80E09B
:1008900045C0D11006C0CE0101960E947D0ADD241C
:1008A000D3940F900FBE0E9465070FB6F8940F9275
:1008B000F801858D8F3F09F4158EF801868D8F3FE5
:1008C00009F4168E0F900FBEBE016C5F7F4FCE01F4
:1008D00001960E94880A81111BC0C8010E94B102C2
:1008E000882381F06C817D81C80108960E94AE0941
:1008F000C8010E9422030E94850881119ECF0E9498
:10090000EC019BCFC8010E9422030E94850895CF6D
:10091000C8010E9422030E94850880E00F900F907A
:100920000F900F900F90DF91CF911F910F91FF903B
:10093000EF90DF90CF900895CF92DF92EF92FF92E9
:100940000F931F93CF93DF9300D000D01F92CDB7AA
:10095000DEB78C016B015D834C83E12C0FB6F894FC
:100960000F92F801F28CFF20A9F0B601C8010E9495
:100970000803FA94F801F28E8085882339F0C801C3
:1009800008960E94C00981110E94EC010F900FBED1
:1009900081E053C08C819D81892B21F40F900FBE83
:1009A00080E04BC0E11006C0CE0101960E947D0A96
:1009B000EE24E3940F900FBE0E9465070FB6F894E3
:1009C0000F92F801858D8F3F09F4158EF801868D01
:1009D0008F3F09F4168E0F900FBEBE016C5F7F4FE4
:1009E000CE0101960E94880A81111BC0C8010E9495
:1009F000A402882381F06C817D81C80141960E9408
:100A0000AE09C8010E9422030E9485088111A6CF69
:100A10000E94EC01A3CFC8010E9422030E94850816
:100A20009DCFC8010E9422030E948508C8010E9430
:100A3000A402882309F492CF80E00F900F900F90CA
:100A40000F900F90DF91CF911F910F91FF90EF903A
:100A5000DF90CF900895E091AA06F091AB068081D7
:100A6000811107C08FEF9FEF90938A0680938906CC
:100A70000895E091AA06F091AB060580F681E02D7D
:100A80008081918190938A06809389060895CF93FF
:100A9000DF93EC018F89988D0E948300CE010E9424
:100AA0008300DF91CF9108956F927F928F929F92F2
:100AB000AF92BF92CF92DF92EF920F931F93CF939B
:100AC000DF93CDB7DEB74C01F5018789908D2150BA
:100AD00031093C01620E731E6115710589F415C060
:100AE000822F90E0FB01E80FF91F3081D501A80F9C
:100AF000B91F59963C938081882329F02F5F01C04C
:100B000020E0283068F3F50110A2F3E0FE1520F490
:100B10000F2EF3E0EF2EF02DF501E68AC5010296C7
:100B20000E949200C5010C960E949200F501B186C8
:100B3000A08684E090E08E19910995878487B38A16
:100B4000A28AA801B401C3010E945101F501918359
:100B50008083C114D10419F0F601B182A082DF9123
:100B6000CF911F910F91EF90DF90CF90BF90AF90FA
:100B70009F908F907F906F900895CF93C0E010C0AA
:100B80008C2F90E09C01220F331F220F331F220F66
:100B9000331F820F931F8254994F0E948400CF5FAE
:100BA000C43070F385EB96E00E9484008CEA96E0F6
:100BB0000E9484008FE996E00E94840086E996E016
:100BC0000E94840085EB96E09093AB068093AA0682
:100BD0008CEA96E09093A9068093A806CF91089599
:100BE000CF93DF93EC010FB6F8940F9280919406A7
:100BF0008F5F809394068091E2069091E306892BA3
:100C000059F4D093E306C093E206809194068130B4
:100C100099F40E94BD0510C08091900681110CC00E
:100C2000E091E206F091E30696898E89891720F01B
:100C3000D093E306C093E20680918B068F5F80938A
:100C40008B068E8990919106981710F480939106E7
:100C500090E0FC01EE0FFF1FEE0FFF1FEE0FFF1FD6
:100C60008E0F9F1FFC01E254F94F0180F281E02DAD
:100C7000FD83EC83848195819F838E83A481B581DC
:100C8000CE01029613969C938E931297958384833C
:100C9000EE89F0E0CF01880F991F880F991F880F08
:100CA000991FE80FF91FE254F94FFB87EA8780810B
:100CB0008F5F80830F900FBE80919006882351F044
:100CC000E091E206F091E30696898E89981710F478
:100CD0000E94EC01DF91CF910895CF93DF931CC068
:100CE0000FB6F8940F92E0919B06F0919C06C68196
:100CF000D781CE0102960E94C70080919406815050
:100D000080939406809195068150809395060F906C
:100D10000FBECE010E944705809195068111E0CF5C
:100D2000DF91CF9108950E946D068091BE068230BA
:100D3000D0F30E94EC01F7CF0F931F93CF93DF9373
:100D4000EC0100919206109193068091E206909139
:100D5000E30602960E94C700C00FD11FE091E20691
:100D6000F091E306D383C283C017D10768F4609182
:100D7000E2067091E3068091A8069091A9066E5F45
:100D80007F4F0E94960017C06091E2067091E306C3
:100D90008091AA069091AB066E5F7F4F0E949600ED
:100DA0008091890690918A06C817D90720F4D093BC
:100DB0008A06C0938906DF91CF911F910F91089504
:100DC0002F923F924F925F926F927F928F929F925B
:100DD000AF92BF92CF92DF92EF92FF920F931F9349
:100DE000CF93DF933C011B015A012901CA010E94E4
:100DF00049006C01892B99F086E290E00E9449003D
:100E0000EC01892B41F086E2FE0111928A95E9F707
:100E1000D88ECF8A06C0C6010E94830002C0C0E0FF
:100E2000D0E0209791F0950140E050E0812C912C8A
:100E30005E016701E02E8201B101C3010E945405E9
:100E4000CE010E94F00581E001C08FEFDF91CF91CC
:100E50001F910F91FF90EF90DF90CF90BF90AF90D8
:100E60009F908F907F906F905F904F903F902F90CA
:100E70000895EF92FF920F930F2EF7E8EF2EF6E012
:100E8000FF2EF02D00E020E030E045E550E060EA84
:100E900070E083E996E00E94E006813081F4F894E6
:100EA0008FEF9FEF90938A068093890681E080936D
:100EB000900610929306109292060E94BD018091B6
:100EC00060000F91FF90EF900895809186068F5FEC
:100ED0008093860608950F931F93CF93DF9380919D
:100EE0008606811101C1C0919206D09193068E01B0
:100EF0000F5F1F4F10939306009392060115110583
:100F0000B9F48091AA069091AB062091A806309181
:100F1000A9063093AB062093AA069093A906809366
:100F2000A80680918C068F5F80938C060E942B050B
:100F30008091890690918A060817190720F480E0AD
:100F4000B8C081E001C080E0E091AA06F091AB0654
:100F50009081911107C02FEF3FEF30938A062093C5
:100F60008906A7C0E091AA06F091AB060580F6813C
:100F7000E02D0680F781E02D2281338102171307CF
:100F800028F430938A062093890693C0A285B385FE
:100F90002481358146815781E9015D834C83268117
:100FA000378144815581E9015B834A8311962D91F4
:100FB0003C911297AF014E5F5F4F2417350731F414
:100FC0002681378112963C932E93119713861286B1
:100FD0009C9191509C93A489B589109719F126850D
:100FE000378560897189E9017D836C832089318926
:100FF00066857785E9017B836A8311966D917C9183
:1010000012979F01245F3F4F6217730731F42089C5
:10101000318912963C932E931197158A148A9C91CC
:1010200091509C93268990919106921710F42093E9
:10103000910630E0D901AA0FBB1FAA0FBB1FAA0F50
:10104000BB1F2A0F3B1FD901A254B94F11960D9017
:10105000BC91A02DB583A48314962D913C91159736
:101060003783268314962D913C911597E9015B8374
:101070004A8315965C934E931497A689B0E09D0120
:10108000220F331F220F331F220F331FA20FB31F54
:10109000A254B94FB387A2879C919F5F9C932689E6
:1010A000E091E206F091E3069689921708F449CFA1
:1010B0004BCFE091E206F091E306268930E0F9019A
:1010C000EE0FFF1FEE0FFF1FEE0FFF1F2E0F3F1F34
:1010D000F901E254F94F9081923008F081E090914B
:1010E0008D0691110CC00CC080918E0690918F06D8
:1010F000019690938F0680938E0680E001C081E078
:10110000DF91CF911F910F910895CF93DF930FB689
:10111000F8940F9280918606815080938606809184
:1011200086068111BFC080919406811196C0BDC012
:10113000E091A406F091A5060680F781E02DA48930
:10114000B589C685D785808991899D838C83C0891F
:10115000D189868597859B838A8311962D913C91B1
:101160001297CF010C962817390731F4808991899D
:1011700012969C938E931197158A148A8C918150A4
:101180008C93A285B385C481D581868197819D8307
:101190008C83C681D781848195819B838A831196B4
:1011A0008D919C9112979F012E5F3F4F821793075D
:1011B00031F48681978112969C938E9311971386B2
:1011C00012868C9181508C93868990919106981704
:1011D00010F48093910690E0DC01AA0FBB1FAA0FC8
:1011E000BB1FAA0FBB1F8A0F9B1FDC01A254B94F64
:1011F00011960D90BC91A02DB583A48314968D916A
:101200009C911597978386831496CD91DC911597C1
:101210003B832A8315963C932E931497A689B0E0BE
:10122000CD01880F991F880F991F880F991FA80F4C
:10123000B91FA254B94FB387A2878C918F5F8C934B
:101240009689A091E206B091E30656968C91981784
:1012500030F081E080938D0602C0E0E0F0E0809104
:101260009F06811165CFEF2B11F00E942B05C091D5
:101270008E06D0918F06209769F00E946B07882315
:1012800019F081E080938D062197B9F710928F06AF
:1012900010928E0680918D06882331F00E94EC0119
:1012A00081E003C080E001C080E00F900FBEDF91BD
:1012B000CF91089580918606882321F081E0809364
:1012C0008D06089510928D062091910601C021503F
:1012D000822F90E0FC01EE0FFF1FEE0FFF1FEE0FBD
:1012E000FF1FE80FF91FE254F94F3081332379F3E0
:1012F000AC01440F551F440F551F440F551F480F95
:10130000591FDF010180F281E02D0280F381E02D81
:101310001296FC93EE9311974F53594FE417F5072C
:1013200029F442815381FD0152834183FC01EE0F78
:10133000FF1FEE0FFF1FEE0FFF1F8E0F9F1FFC0101
:10134000E254F94F0180F281E02D868197819093DC
:10135000E3068093E206209391060895CF93DF93EE
:10136000EB016091E2067091E306645F7F4F0E949B
:10137000960061E0CE010E949C06DF91CF91089516
:10138000CF93DF93DC011596ED91FC9116970680C3
:10139000F781E02DA489B589C685D7858089918993
:1013A0009D838C83C089D189868597859B838A8319
:1013B00011968D919C9112979F01245F3F4F821748
:1013C000930731F48089918912969C938E9311979B
:1013D000158A148A8C9181508C9380918606811194
:1013E00060C0A285B385C481D581868197819D83A4
:1013F0008C83C681D781848195819B838A83119652
:101400008D919C9112979F012E5F3F4F82179307FA
:1014100031F48681978112969C938E93119713864F
:1014200012868C9181508C938689909191069817A1
:1014300010F48093910690E0DC01AA0FBB1FAA0F65
:10144000BB1FAA0FBB1F8A0F9B1FDC01A254B94F01
:1014500011960D90BC91A02DB583A48314968D9107
:101460009C911597978386831496CD91DC9115975F
:101470003B832A8315963C932E931497A689B0E05C
:10148000CD01880F991F880F991F880F991FA80FEA
:10149000B91FA254B94FB387A2878C918F5F8C93E9
:1014A0001CC04FE956E0DA011196CD91DC911297FC
:1014B000D787C6878C819D81918B808B8C819D8104
:1014C000DC0113963C932E9312973D832C83558B0E
:1014D000448BDA018C918F5F8C939689E091E206C0
:1014E000F091E3068689891720F481E080938D06C8
:1014F00001C080E0DF91CF91089520918C06FC011E
:10150000208320919206309193063283218308959F
:10151000CF93DF930FB6F8940F92409192065091BB
:101520009306EC0129813A81DA01A21BB30BF88101
:10153000E0918C06FE1741F04217530728F0FB019B
:101540001182108281E011C0EB0128813981A2173C
:10155000B30740F42A1B3B0B398328830E947D0A82
:1015600080E003C01982188281E00F900FBEDF91E6
:10157000CF91089581E080938D06089588E18AB91E
:1015800086E880BD87E689B910BC08955D9BFECFD3
:101590008CB908950F931F93CF938C01C0E003C0C3
:1015A0000E94C60ACF5FF801EC0FF11D8081811106
:1015B000F7CFCF911F910F910895AA1BBB1B51E14B
:1015C00007C0AA1FBB1FA617B70710F0A61BB70BB3
:1015D000881F991F5A95A9F780959095BC01CD0158
:1015E0000895FB01DC0102C001900D924150504072
:0815F000D8F70895F894FFCF2D
:1015F8000373656E646572310073656E646572327B
:101608000072656365697665720031303000785321
:10161800656E646572310D0A0032303000785365AA
:101628006E646572320D0A007A007E0089008D00B2
:0616380049444C4500008E
:00000001FF
