:100000000C942A000C943F000C943F000C943F0089
:100010000C943F000C943F000C943F000C943F0064
:100020000C943F000C943F000C943F000C943F0054
:100030000C943F000C943F000C943F000C943F0044
:100040000C943F000C943F000C943F000C943F0034
:100050000C943F0011241FBECFE5D8E0DEBFCDBF1A
:1000600010E0A0E6B0E0EEE0F5E002C005900D92F1
:10007000A03AB107D9F70E94E4010C9485020C94D0
:100080000000982F9695969596958770913021F15E
:1000900030F09230F1F1933009F458C00895613096
:1000A00069F44BB321E030E0B90102C0660F771F5D
:1000B0008A95E2F7CB01842B8BBB08954BB321E0EB
:1000C00030E0B90102C0660F771F8A95E2F7CB01D5
:1000D000809584238BBB0895613069F448B321E097
:1000E00030E0B90102C0660F771F8A95E2F7CB01B5
:1000F000842B88BB089548B321E030E0B90102C0E9
:10010000660F771F8A95E2F7CB018095842388BB21
:100110000895613069F445B321E030E0B90102C0CF
:10012000660F771F8A95E2F7CB01842B85BB089574
:1001300045B321E030E0B90102C0660F771F8A9510
:10014000E2F7CB018095842385BB0895613069F483
:1001500042B321E030E0B90102C0660F771F8A95F3
:10016000E2F7CB01842B82BB089542B321E030E05B
:10017000B90102C0660F771F8A95E2F7CB0180951F
:10018000842382BB0895813041F028F0823039F019
:10019000833039F008956BBB089568BB089565BB43
:1001A000089562BB089580E0A0C0982F969596951B
:1001B0009695282F2770913061F138F0923009F42C
:1001C0004CC0933009F46DC08FC0E82FF0E0EE0F03
:1001D000FF1FE05AFF4F9081913069F49AB341E0DC
:1001E00050E0BA0102C0660F771F2A95E2F79B0123
:1001F000292B2ABB79C09AB341E050E0BA0102C072
:10020000660F771F2A95E2F79B01209529232ABBC9
:100210006BC0E82FF0E0EE0FFF1FE05AFF4F908118
:10022000913069F497B341E050E0BA0102C0660F23
:10023000771F2A95E2F79B01292B27BB55C097B35F
:1002400041E050E0BA0102C0660F771F2A95E2F73D
:100250009B012095292327BB47C0E82FF0E0EE0F34
:10026000FF1FE05AFF4F9081913069F494B341E051
:1002700050E0BA0102C0660F771F2A95E2F79B0192
:10028000292B24BB31C094B341E050E0BA0102C035
:10029000660F771F2A95E2F79B012095292324BB3F
:1002A00023C0E82FF0E0EE0FFF1FE05AFF4F9081D0
:1002B000913069F491B341E050E0BA0102C0660F99
:1002C000771F2A95E2F79B01292B21BB0DC091B323
:1002D00041E050E0BA0102C0660F771F2A95E2F7AD
:1002E0009B012095292321BB8F5F803208F45DCFCD
:1002F0000895CF93C82F682F607F80E00E94C300CD
:100300008FE39FE10197F1F700C0000060E089E012
:100310000E94410060E08BE00E9441008FE39FE17A
:100320000197F1F700C0000061E08BE00E944100FE
:100330006C2F6295607F80E00E94C30060E089E0DE
:100340000E94410060E08BE00E9441008FE39FE14A
:100350000197F1F700C0000061E08BE00E944100CE
:100360008FE39FE10197F1F700C00000CF9108955E
:1003700060E08AE00E9441002FEF89EF90E0215079
:1003800080409040E1F700C0000083E30E947901C3
:100390008FE39FE10197F1F700C0000082E30E9424
:1003A000790188E20E94790186E00E9479018CE05F
:1003B0000E94790181E00E9479018FE99FE0019715
:1003C000F1F700C00000089585E00E9417020E9426
:1003D000D3000E94B80184B3846084BB85B38B7F53
:1003E00085BB2FEF83ED90E3215080409040E1F7F3
:1003F00000C0000062E070E082E00E94350282E00E
:100400000E945A028230B1F785B3846085BB2FEF1A
:1004100083ED90E3215080409040E1F700C0000060
:10042000E9CF86B7846986BF089582B9089510B868
:100430000E94150286B7846886BF089581B1887FBF
:10044000089586B7846A86BF06B607FEFDCF0E9470
:100450001E02089583B984E886BF06B607FEFDCF65
:100460000E941E02089583B10895CF93DF93D82F81
:10047000C62F0E9421028830D1F480EA0E942A020D
:100480008831A9F48C2F0E942A02883281F40E94BC
:100490002102803161F48C2F0E942A02883139F4C4
:1004A0008D2F0E942A02883211F40E941102DF91DE
:1004B000CF910895CF93C82F0E9421028830C9F4AC
:1004C00081EA0E942A028034B1F48C2F0E942A0211
:1004D000803599F40E942102803189F483E00E94E2
:1004E0002A02803471F40E943302C82F0E94110244
:1004F00009C0C0E007C0C0E005C0C0E003C0C0E064
:0E05000001C0C0E08C2FCF910895F894FFCF7A
:10050E0001010101010101010101010101010101CD
:10051E0001010101010101010101010100000101BF
:10052E0001010101010101010101010101010101AD
:10053E0000000101000001010101010101010101A1
:00000001FF
