S011000052544F535F554152542E7372656330
S11300000C942A000C9447000C9447000C9447006D
S11300100C9447000C9447000C9447000C947C0209
S11300200C9447000C9447000C9447000C94470030
S11300300C9447000C9447000C9447000C94470020
S11300400C9447000C9447000C9447000C94470010
S11300500C94470011241FBECFE5D8E0DEBFCDBF0E
S113006010E0A0E6B0E0E2E7FEE002C005900D92E9
S1130070AC37B107D9F726E0ACE7B0E001C01D9278
S1130080AA3BB207E1F70E9400010C9437070C94D5
S11300900000CF93DF93EC010E94B90480917C00AF
S11300A090917D00892B31F480E890E090937D005D
S11300B080937C002097C9F080917E0090917F000E
S11300C09E01280F391F2B3D45E0340788F4821721
S11300D0930788F4C0917C00D0917D00C80FD91F8C
S11300E030937F0020937E0008C0C0E0D0E005C0BC
S11300F0C0E0D0E002C0C0E0D0E00E94D905CE014B
S1130100DF91CF9108950895FC0103969283818332
S11301102FEF3FEF348323839683858390878783F0
S113012010820895FC01118610860895CF93DF9301
S1130130EB01488159814F3F2FEF520721F4FC0115
S1130140A781B0850DC0DC01139601C0DF011296B2
S1130150ED91FC9113972081318142175307B0F739
S11301601296ED91FC911397FB83EA83D583C483A4
S1130170BD83AC831396DC93CE93129799878887BB
S1130180FC0120812F5F2083DF91CF910895CF93CD
S1130190DF93FC01A085B185C281D38184819581DF
S11301A09D838C83C481D581828193819B838A833F
S11301B011968D919C911297E817F90731F4848177
S11301C0958112969C938E931197118610868C912B
S11301D081508C938C91DF91CF910895EC01CE01E5
S11301E00E94240786E990E00E94AE06F8CFEC0155
S11301F0CE010E94240786E990E00E94AE06F8CF63
S11302000E94180784B38C6184BB81B38B7F81BB4C
S1130210E12CF12C03E021E630E044EF51E069E603
S113022070E08EEE90E00E94340401E02FE630E0AE
S113023044EF51E069E670E087EF90E00E943404F7
S11302400E948D04FFCF1BBC89EF8ABD8BE08EBD5D
S113025089B7806189BF089531E1FC01308331970A
S113026022E220833197A3E3A083319760833197FF
S1130270708331971082319760E8608331971082E0
S1130280319762E06083319763E06083319764E083
S11302906083319765E06083319766E060833197CE
S11302A067E06083319768E06083319769E0608339
S11302B0319760E1608331973083319732E1308345
S11302C0319733E13083319734E13083319735E12D
S11302D03083319736E13083319737E1308331977A
S11302E038E13083319739E13083319730E230831C
S11302F0319731E2308331972083319723E2208391
S11303003197408331975083319726E22083319788
S113031027E22083319728E22083319729E2208342
S1130320319720E32083319721E320838697089532
S11303300E942301A091B806B091B906CD91CDBF1A
S1130340DD91DEBFFF91EF91DF91CF91BF91AF912E
S11303509F918F917F916F915F914F913F912F91D9
S11303601F910F91FF90EF90DF90CF90BF90AF90CF
S11303709F908F907F906F905F904F903F902F90C1
S11303801F900F900FBE0F90089581E008950F9273
S11303900FB6F8940F921F9211242F923F924F920E
S11303A05F926F927F928F929F92AF92BF92CF9201
S11303B0DF92EF92FF920F931F932F933F934F93EC
S11303C05F936F937F938F939F93AF93BF93CF93D9
S11303D0DF93EF93FF93A091B806B091B9060DB6E1
S11303E00D920EB60D920E94C406A091B806B0916B
S11303F0B906CD91CDBFDD91DEBFFF91EF91DF91C5
S1130400CF91BF91AF919F918F917F916F915F91A8
S11304104F913F912F911F910F91FF90EF90DF909B
S1130420CF90BF90AF909F908F907F906F905F9090
S11304304F903F902F901F900F900FBE0F900895F4
S11304400F920FB6F8940F921F9211242F923F929D
S11304504F925F926F927F928F929F92AF92BF92D0
S1130460CF92DF92EF92FF920F931F932F933F93BC
S11304704F935F936F937F938F939F93AF93BF93A8
S1130480CF93DF93EF93FF93A091B806B091B90691
S11304900DB60D920EB60D920E94BF0481110E94FA
S11304A0C406A091B806B091B906CD91CDBFDD9137
S11304B0DEBFFF91EF91DF91CF91BF91AF919F91FB
S11304C08F917F916F915F914F913F912F911F91E8
S11304D00F91FF90EF90DF90CF90BF90AF909F90DF
S11304E08F907F906F905F904F903F902F901F90D0
S11304F00F900FBE0F9008950E9420021895E0916E
S11305008006F09181068081811107C08FEF9FEFF3
S11305109093600680935F060895E0918006F091C1
S113052081060580F681E02D80819181909360069B
S113053080935F060895CF93DF93EC018F89988DA4
S11305400E948300CE010E948300DF91CF91089521
S11305506F927F928F929F92AF92BF92CF92DF92CF
S1130560EF920F931F93CF93DF93CDB7DEB74C0178
S1130570F5018789908D215031093C01620E731E6B
S11305806115710589F415C0822F90E0FB01E80F15
S1130590F91F3081D501A80FB91F59963C9380816A
S11305A0882329F02F5F01C020E0283068F3F5018B
S11305B010A2F3E0FE1520F40F2EF3E0EF2EF02D41
S11305C0F501E68AC50102960E949200C5010C96C7
S11305D00E949200F501B186A08684E090E08E1915
S11305E0910995878487B38AA28AA801B401C301BB
S11305F00E942C01F50191838083C114D10419F068
S1130600F601B182A082DF91CF911F910F91EF90FB
S1130610DF90CF90BF90AF909F908F907F906F901E
S11306200895CF93C0E010C08C2F90E09C01220F5E
S1130630331F220F331F220F331F820F931F8C5639
S1130640994F0E948400CF5FC43070F38BE896E02A
S11306500E94840082E896E00E94840085E796E088
S11306600E9484008CE696E00E9484008BE896E069
S1130670909381068093800682E896E090937F06AB
S113068080937E06CF910895CF93DF93EC010FB64C
S1130690F8940F9280916A068F5F80936A06809126
S11306A0B8069091B906892B59F4D093B906C09332
S11306B0B80680916A06813099F40E94110310C033
S11306C08091660681110CC0E091B806F091B906DC
S11306D096898E89891720F0D093B906C093B806FD
S11306E0809161068F5F809361068E899091670681
S11306F0981710F48093670690E0FC01EE0FFF1F3B
S1130700EE0FFF1FEE0FFF1F8E0F9F1FFC01EC5615
S1130710F94F0180F281E02DFD83EC838481958182
S11307209F838E83A481B581CE01029613969C93F8
S11307308E93129795838483EE89F0E0CF01880F1E
S1130740991F880F991F880F991FE80FF91FEC56FE
S1130750F94FFB87EA8780818F5F80830F900FBEFC
S113076080916606882351F0E091B806F091B906AD
S113077096898E89981710F40E94C701DF91CF9152
S11307800895CF93DF931CC00FB6F8940F92E091B5
S11307907106F0917206C681D781CE0102960E943D
S11307A0C70080916A06815080936A0680916B0627
S11307B0815080936B060F900FBECE010E949B0266
S11307C080916B068111E0CFDF91CF9108950E9453
S11307D0C103809194068230D0F30E94C701F7CF01
S11307E00F931F93CF93DF93EC0100916806109150
S11307F069068091B8069091B90602960E94C700D6
S1130800C00FD11FE091B806F091B906D383C2831B
S1130810C017D10768F46091B8067091B906809149
S11308207E0690917F066E5F7F4F0E94960017C0F0
S11308306091B8067091B906809180069091810606
S11308406E5F7F4F0E94960080915F0690916006D4
S1130850C817D90720F4D0936006C0935F06DF91D0
S1130860CF911F910F9108952F923F924F925F92D3
S11308706F927F928F929F92AF92BF92CF92DF92AC
S1130880EF92FF920F931F93CF93DF933C011B01D1
S11308905A012901CA010E9449006C01892B99F06F
S11308A086E290E00E944900EC01892B41F086E247
S11308B0FE0111928A95E9F7D88ECF8A06C0C60147
S11308C00E94830002C0C0E0D0E0209791F095011F
S11308D040E050E0812C912C5E016701E02E820102
S11308E0B101C3010E94A802CE010E94440381E029
S11308F001C08FEFDF91CF911F910F91FF90EF9087
S1130900DF90CF90BF90AF909F908F907F906F902B
S11309105F904F903F902F900895EF92FF920F9326
S11309200F2EFDE5EF2EF6E0FF2EF02D00E020E087
S113093030E045E550E067E770E087EE93E00E9421
S11309403404813081F4F8948FEF9FEF9093600624
S113095080935F0681E08093660610926906109288
S113096068060E949801809160000F91FF90EF90BB
S1130970089580915C068F5F80935C0608950F93C1
S11309801F93CF93DF9380915C06811101C1C091C5
S11309906806D09169068E010F5F1F4F1093690698
S11309A00093680601151105B9F4809180069091B1
S11309B0810620917E0630917F0630938106209334
S11309C0800690937F0680937E06809162068F5FF7
S11309D0809362060E947F0280915F069091600678
S11309E00817190720F480E0B8C081E001C080E056
S11309F0E0918006F09181069081911107C02FEF5C
S1130A003FEF3093600620935F06A7C0E091800615
S1130A10F09181060580F681E02D0680F781E02DB6
S1130A20228133810217130728F430936006209340
S1130A305F0693C0A285B3852481358146815781A1
S1130A40E9015D834C832681378144815581E90125
S1130A505B834A8311962D913C911297AF014E5FAF
S1130A605F4F2417350731F42681378112963C9362
S1130A702E931197138612869C9191509C93A4896E
S1130A80B589109719F12685378560897189E9013F
S1130A907D836C832089318966857785E9017B8331
S1130AA06A8311966D917C9112979F01245F3F4F49
S1130AB06217730731F42089318912963C932E937F
S1130AC01197158A148A9C9191509C932689909130
S1130AD06706921710F42093670630E0D901AA0F35
S1130AE0BB1FAA0FBB1FAA0FBB1F2A0F3B1FD90195
S1130AF0AC56B94F11960D90BC91A02DB583A4832B
S1130B0014962D913C9115973783268314962D9135
S1130B103C911597E9015B834A8315965C934E9348
S1130B201497A689B0E09D01220F331F220F331FB3
S1130B30220F331FA20FB31FAC56B94FB387A2873E
S1130B409C919F5F9C932689E091B806F091B90629
S1130B509689921708F449CF4BCFE091B806F091EB
S1130B60B906268930E0F901EE0FFF1FEE0FFF1FD3
S1130B70EE0FFF1F2E0F3F1FF901EC56F94F908126
S1130B80923008F081E09091630691110CC00CC082
S1130B908091640690916506019690936506809312
S1130BA0640680E001C081E0DF91CF911F910F9135
S1130BB00895CF93DF930FB6F8940F9280915C065B
S1130BC0815080935C0680915C068111BFC0809146
S1130BD06A06811196C0BDC0E0917A06F0917B0649
S1130BE00680F781E02DA489B589C685D7858089DB
S1130BF091899D838C83C089D189868597859B83C0
S1130C008A8311962D913C911297CF010C96281747
S1130C10390731F48089918912969C938E931197A8
S1130C20158A148A8C9181508C93A285B385C481D2
S1130C30D581868197819D838C83C681D781848168
S1130C4095819B838A8311968D919C9112979F0124
S1130C502E5F3F4F8217930731F486819781129656
S1130C609C938E931197138612868C9181508C934A
S1130C70868990916706981710F48093670690E030
S1130C80DC01AA0FBB1FAA0FBB1FAA0FBB1F8A0F31
S1130C909B1FDC01AC56B94F11960D90BC91A02D51
S1130CA0B583A48314968D919C911597978386831D
S1130CB01496CD91DC9115973B832A8315963C932A
S1130CC02E931497A689B0E0CD01880F991F880F41
S1130CD0991F880F991FA80FB91FAC56B94FB38736
S1130CE0A2878C918F5F8C939689A091B806B0915E
S1130CF0B90656968C91981730F081E0809363067C
S1130D0002C0E0E0F0E080917506811165CFEF2B21
S1130D1011F00E947F02C0916406D091650620976D
S1130D2069F00E94BF04882319F081E08093630670
S1130D302197B9F7109265061092640680916306B4
S1130D40882331F00E94C70181E003C080E001C024
S1130D5080E00F900FBEDF91CF910895CF93DF9382
S1130D60EC01892B49F00E94B90460E0CE010E9495
S1130D70F0030E94D90501C080E0811102C00E94E5
S1130D80C701DF91CF91089580915C06882321F0FB
S1130D9081E08093630608951092630620916706AC
S1130DA001C02150822F90E0FC01EE0FFF1FEE0FD7
S1130DB0FF1FEE0FFF1FE80FF91FEC56F94F3081AC
S1130DC0332379F3AC01440F551F440F551F440FCF
S1130DD0551F480F591FDF010180F281E02D028069
S1130DE0F381E02D1296FC93EE9311974956594FD7
S1130DF0E417F50729F442815381FD0152834183AD
S1130E00FC01EE0FFF1FEE0FFF1FEE0FFF1F8E0FF3
S1130E109F1FFC01EC56F94F0180F281E02D868181
S1130E2097819093B9068093B80620936706089536
S1130E3088E18AB986E880BD87E689B910BC08953F
S1130E405D9BFECF8CB908950F931F93CF938C01B4
S1130E50C0E003C00E942007CF5FF801EC0FF11D32
S1130E6080818111F7CFCF911F910F910895F8944C
S1050E70FFCFAE
S1130E720374657374310A0D007561727431007400
S10F0E82657374320A0D0049444C4500AD
S9030000FC
